:020000040000FA
:100000000C9464000C948C000C948C000C948C0068
:100010000C948C000C948C000C948C000C94830831
:100020000C948C000C948C000C948C000C948C0020
:100030000C948C000C948C000C948C000C948C0010
:100040000C94DF080C948C000C948C000C948C00A5
:100050000C948C000C948C000C948C000C948C00F0
:100060000C948C000C948C000000000024002700ED
:100070002A000000000023002600290001020408D5
:100080001020408001020408102001020408102002
:1000900000000000250028002B00040404040404D0
:1000A0000404020202020202030303030303020028
:1000B0000000080002010000030407000000000027
:1000C00000000000380DE40D11241FBECFEFD8E072
:1000D000DEBFCDBF23E0A6EEB2E001C01D92A03C82
:1000E000B207E1F712E0A0E0B1E0E0E1F4E202C023
:1000F00005900D92A63EB107D9F710E0C3E6D0E017
:1001000004C02197FE010E94EF0FC236D107C9F744
:100110000E9429090C94FB110C94000096E0899F21
:10012000D0011124A15DBC4F90967C936E935F9794
:1001300091E091969C939197E0919C03F0919D039F
:1001400090919B03992339F0309751F0811108C0A9
:1001500080914B030994309719F05C968C91FACFFB
:100160000895CF92DF92EF92FF920F931F9396E044
:10017000899FF0011124E15DFC4F11A2278D30A170
:100180002130310551F178F02230310509F451C0A8
:100190002330310509F452C01F910F91FF90EF9069
:1001A000DF90CF9008956623B9F361E070E00E947C
:1001B0008E002FB7F89480912B0390912C03A0917F
:1001C0002D03B0912E032FBF809387039093880354
:1001D000A0938903B0938A03DFCF9FB7F894C090B0
:1001E0002B03D0902C03E0902D03F0902E039FBFA3
:1001F00000918703109188032091890330918A032D
:10020000C01AD10AE20AF30A0091990310919A03E5
:1002100030E020E00C151D052E053F0550F462E08E
:1002200070E01F910F91FF90EF90DF90CF900C94B2
:100230008E006111B1CF63E070E0F3CF70E060E059
:10024000F0CFAF92BF92CF92DF92EF92FF920F93D7
:100250001F93CF93DF936C017B018B01040F151F5C
:10026000EB015E01AE18BF08C017D10759F06991C4
:10027000D601ED91FC910190F081E02DC601099528
:10028000892B79F7C501DF91CF911F910F91FF90D5
:10029000EF90DF90CF90BF90AF900895FC01448124
:1002A00055816081718184EA93E00C94210183304F
:1002B00081F028F4813099F08230A9F008958730D8
:1002C000A9F08830C9F08430B1F4809180008F7D2E
:1002D00003C0809180008F7780938000089584B55B
:1002E0008F7784BD089584B58F7DFBCF8091B0005A
:1002F0008F778093B00008958091B0008F7DF9CF03
:10030000CF93DF93282F30E0F901E155FF4F84911F
:10031000F901E458FF4FD491F901E656FF4FC4911B
:10032000CC23A1F081110E945701EC2FF0E0EE0FD9
:10033000FF1FEE58FF4FA591B491EC91ED2381E0A2
:1003400090E009F480E0DF91CF91089580E090E0A3
:10035000FACF862F0C9480011F93CF93DF93282F21
:1003600030E0F901E155FF4F8491F901E458FF4F66
:10037000D491F901E656FF4FC491CC23A9F0162F72
:1003800081110E945701EC2FF0E0EE0FFF1FE057A4
:10039000FF4FA591B4918FB7F894EC91111108C05B
:1003A000D095DE23DC938FBFDF91CF911F9108950D
:1003B000DE2BF8CF862F642F0C94AC01909118019E
:1003C00089130BC0EEEAF0E0E4919FEF90931801DF
:1003D000E13049F028F0E23061F060E00C94AC01CB
:1003E00010926E00FACF90916F009D7F90936F00F6
:1003F000F4CF909170009D7F9093700091E0909366
:10040000B0009091B100987F94609093B1001092E9
:10041000B300E3CFCF93DF9390E0FC01E458FF4FAC
:10042000249186569F4FFC0184918823C9F090E067
:10043000880F991FFC01E859FF4FA591B491FC0169
:10044000E057FF4FC591D49161110DC09FB7F8944B
:100450008C91209582238C938881282328839FBFA9
:10046000DF91CF910895623051F49FB7F8943C9199
:10047000822F809583238C93E8812E2BEFCF8FB72B
:10048000F894EC912E2B2C938FBFEACF862F642FFC
:100490000C940A026F927F928F929F92AF92BF92BA
:1004A000CF92DF92EF92FF920F931F93CF93DF9340
:1004B00081E080939B038FB7F89440912B03509178
:1004C0002C0360912D0370912E038FBF80918B03BD
:1004D00090918C03A0918D03B0918E03481B590B12
:1004E0006A0B7B0B8091970390919803B0E0A0E09A
:1004F00084179507A607B70708F01DC1C0E08091D3
:100500009503C81760F4E0919103F0919203EC0F0A
:10051000F11D62E080810E940A02CF5FF0CF712C52
:10052000812C912C5401839480919603781608F0C5
:100530005FC0072D10E0E0919303F0919403E00F6A
:10054000F11F61E080810E940A02E0919303F09123
:100550009403E00FF11F60E080810E94AC01D5019F
:10056000C401072C04C0880F991FAA1FBB1F0A943F
:10057000D2F76C017C01E094F094612C809195039A
:100580006816F8F4C62DD0E0E0919103F091920343
:10059000EC0FFD1F80810E9480012496CC0FDD1F8F
:1005A000C15DDC4F892B41F4888199818C299D297B
:1005B000998388836394E2CF888199818E219F21DA
:1005C000F7CFE0919303F0919403E00FF11F61E006
:1005D00080810E94AC018091930390919403080F55
:1005E000191F60E0F80180810E940A0273949CCF79
:1005F000CFE2D3E0FE018FEF9FEF278D30A1232BB9
:1006000021F4148E968F858F11A2369623E0EB3657
:10061000F20799F7F12C96E0D92E80919503F81600
:1006200008F050C0E12C0F2D10E0000F111F095CE5
:100630001C4F20919603E21608F042C0F801608139
:1006400071810E2C02C0769567950A94E2F7F29EAE
:10065000900111242E0D311DEFE2F3E080E0458D75
:10066000568D2417350709F46AC08F5F36968A3095
:10067000B1F760FF23C0EFE2F3E090E080E0448D4B
:10068000411117C0E0918F03F0919003E20FF31F27
:100690004081D89EF001D99EF00D1124E15DFC4F00
:1006A000448F368F258F10A2178E61E00E94B10013
:1006B00005C0019636968A30910509F7E394B9CFC3
:1006C000F394ABCF80E099A19111892F2696F3E0A6
:1006D000CB36DF07C1F79FB7F89440912B035091B9
:1006E0002C0360912D0370912E039FBF40938B03C9
:1006F00050938C0360938D0370938E038823D9F0FD
:10070000809150038823B9F080914E0390914F035C
:10071000019789F480914B03DF91CF911F910F9145
:10072000FF90EF90DF90CF90BF90AF909F908F9011
:100730007F906F90089510929B0380E0EDCF6170E1
:10074000B5CF4F925F926F927F928F929F92AF92AE
:10075000BF92CF92DF92EF92FF920F931F93CF93AE
:10076000DF9300D000D01F92CDB7DEB78B012901F7
:100770003A01909118018917C9F09F3F09F47EC092
:100780000F900F900F900F900F90DF91CF911F91CE
:100790000F91FF90EF90DF90CF90BF90AF909F9020
:1007A0008F907F906F905F904F900895EEEAF0E009
:1007B00094919D8397FDE4CF61E00E940A028D81B0
:1007C000882321F09D81923009F04AC14801B12C63
:1007D000A12C60E072E18AE790E0A50198010E94F7
:1007E000BC0F29833A834B835C8369017A0181E0E2
:1007F000C81AD108E108F1089FEFC916D104E10435
:10080000F10409F00CF401C160E472E48FE090E0BF
:10081000A50198010E94BC0F69017A0181E0C81A04
:10082000D108E108F1089D81923009F0A2C08FEF54
:10083000C816D104E104F10409F00CF4E6C160E942
:1008400070ED83E090E0A50198010E94BC0F690162
:100850007A0191E0C91AD108E108F1088FEFC816B2
:10086000D104E104F10411F00CF07FC183E0909118
:10087000B100987F892B8093B100CFC0809318017D
:10088000EEEAF0E094919D839F3F09F479CF913097
:1008900041F150F0923009F446C09D8197FD70CF30
:1008A00061E00E940A028ECF14BC15BC94B5926020
:1008B00094BD95B5916095BD282F30E0F901E656BD
:1008C000FF4FE491F0E0EE0FFF1FE057FF4F45911F
:1008D0005491F901E458FF4FE491E093EC021D823A
:1008E0006BCF1092800010928100909181009860EF
:1008F0009093810090918100916090938100282FC6
:1009000030E0F901E656FF4FE491F0E0EE0FFF1FF3
:10091000E057FF4F45915491F901E458FF4FE4919E
:10092000E093EB0249CF1092B0001092B100909189
:10093000B00092609093B0009091B100916090935C
:10094000B100282F30E0F901E656FF4FE491F0E0C6
:10095000EE0FFF1FE057FF4F459154915093F60261
:100960004093F502F901E458FF4FE491E093F70258
:1009700023CF9FEFC916D104E104F10409F00CF470
:100980006DC068E478EE81E090E0A50198010E94D6
:10099000BC0F69017A0181E0C81AD108E108F108A9
:1009A0009D81992309F4FAC08FEFC816D104E104A0
:1009B000F10411F00CF0FBC0EFC064E274EF80E0D2
:1009C00090E0A50194010E94BC0F69017A0181E0C9
:1009D000C81AD108E108F10885E09FEFC916D104D3
:1009E000E104F10409F008F442CF62E17AE780E023
:1009F00090E0A50194010E94BC0F69017A0181E099
:100A0000C81AD108E108F108E5C081E09D81911183
:100A10002ECF95B5987F892B85BD2FEF3FEFA9018C
:100A2000411451046104710409F043C09D81913067
:100A300009F45EC0923009F46DC09111A1CEC7BC1B
:100A40002093F1023093F2024093F3025093F402A8
:100A500080916E00826080936E0092CE82E0D6CF4D
:100A6000B12CA12C60E072E18AE790E0A501980129
:100A70000E94BC0F69017A0181E0C81AD108E1081F
:100A8000F108C114D10491E0E906F10404F591E004
:100A90008D81813011F680918100887F892B809330
:100AA00081002FEF3FEFA90141145104610471044B
:100AB000F9F0D801AA0FBB1FA30192010E94FF0EFB
:100AC00028EE33E040E050E00E949A0FAFCF68E498
:100AD00078EE81E090E0A50198010E94BC0F6901C9
:100AE0007A0181E0C81AD108E108F10893E0D0CF7B
:100AF000D0928900C09288002093ED023093EE02DC
:100B00004093EF025093F00280916F0082608093D7
:100B10006F0036CEC092B3002093F8023093F902F2
:100B20004093FA025093FB028091700082608093A0
:100B3000700026CE84E09FEFC916D104E104F104D1
:100B400009F008F466CFC980DA80EB80FC808AE087
:100B5000F594E794D794C7948A95D1F781E0C81AA1
:100B6000D108E108F10885E054CF68E478EE81E02F
:100B700090E0A50198010E94BC0F69017A0181E013
:100B8000C81AD108E108F1089FEFC916D104E104A1
:100B9000F10411F00CF011CF84E069CE83E09FEFF7
:100BA000C916D104E104F10409F00CF432CF62E17A
:100BB0007AE780E090E0A50194010E94BC0F6901F2
:100BC0007A0181E0C81AD108E108F1089D819923D2
:100BD00009F4B0CF86E09FEFC916D104E104F10417
:100BE00009F008F444CEC980DA80EB80FC809AE0FA
:100BF000F594E794D794C7949A95D1F781E0C81AF1
:100C0000D108E108F10887E032CE82E030CE3FB76C
:100C1000F8948091E7029091E802A091E902B091E6
:100C2000EA0226B5A89B05C02F3F19F00196A11D29
:100C3000B11D3FBFBA2FA92F982F8827BC01CD0126
:100C4000620F711D811D911D42E0660F771F881F85
:100C5000991F4A95D1F708958F929F92AF92BF92B4
:100C6000CF92DF92EF92FF926B017C010E94070608
:100C70004B015C01C114D104E104F104B9F00E94FC
:100C80000706681979098A099B09683E734081053E
:100C9000910580F321E0C21AD108E108F10888EE3D
:100CA000880E83E0981EA11CB11CE4CFFF90EF904A
:100CB000DF90CF90BF90AF909F908F900895089550
:100CC00090E080E00895FC0101900020E9F7319761
:100CD000AF01481B590BBC0184EA93E00C9421013D
:100CE000CF93DF93682F8091A2039091A303892B68
:100CF00089F0C0919E03D0919F03062E000C770BC4
:100D0000CE010E94E011009729F08C1B9D0BDF9112
:100D1000CF9108958FEF9FEFFACFCF93DF93EC0140
:100D200060E08E810E94AC0161E08E810E94AC0186
:100D300060E08E810E94AC018BE891E00197F1F7B1
:100D4000DF91CF910895CF92DF92EF92FF920F93B0
:100D50001F93CF93DF936C017C0187E0E80EF11CB9
:100D6000D0E0C0E0062F10E0B8010C2E02C075954F
:100D700067950A94E2F76170F70181917F010E9403
:100D8000AC012196C430D10579F7C601DF91CF912E
:100D90001F910F91FF90EF90DF90CF900C948D06F4
:100DA000CF92DF92EF92FF920F931F93CF93DF9337
:100DB000EC01F62E642F8C810E94AC018D818F3F57
:100DC00019F060E00E94AC010F2D10E08F8584FFC8
:100DD00025C06E0187E0C80ED11CF12CE12CB801B2
:100DE0000E2C02C0759567950A94E2F76170F601C2
:100DF00081916F010E94AC01FFEFEF1AFF0A88E0BA
:100E0000E816F10461F7CE01DF91CF911F910F91A8
:100E1000FF90EF90DF90CF900C948D06B80184E0A6
:100E2000759567958A95E1F7CE010E94A3066F2D0F
:100E3000CE01DF91CF911F910F91FF90EF90DF9046
:100E4000CF900C94A30640E0682F84EA93E00C94C2
:100E5000D00681E00E9423078BE39FE10197F1F721
:100E60000895CF93DF93823029F49091B303986073
:100E70009093B3038093B7031092B80380E48093F8
:100E8000B90380E18093BA0380E58093BB0361E0FE
:100E90008091A8030E940A028091A9038F3F19F054
:100EA00061E00E940A0261E08091AA030E940A02A6
:100EB000C4EAD3E09E01245A33408091B30384FDF9
:100EC0000BC084E090E021962817390744F461E0D4
:100ED0008E810E940A02EECF88E090E0F4CF8BE38F
:100EE0009DE00197F1F760E08091A8030E94AC01BA
:100EF00060E08091AA030E94AC018091A9038F3F1A
:100F000019F060E00E94AC018091B30384FD34C00D
:100F100063E084EA93E00E94A306CBE4D6E4CE012A
:100F20000197F1F763E084EA93E00E94A30621971A
:100F3000F1F763E084EA93E00E94A30683E592E080
:100F40000197F1F762E084EA93E00E94A3068091A2
:100F5000B30380620E94230784E08093B4038CE093
:100F60000E9423070E94290782E08093B50386E050
:100F7000DF91CF910C94230780620E9423078BE4BA
:100F800096E40197F1F78091B30380620E942307F2
:100F900083E592E00197F1F78091B30380620E94AC
:100FA0002307D5CFE091B703E23040F4E150F0E001
:100FB000EC55FC4F848980680C942307E1E0F7CF5F
:100FC00041E00E94D00681E090E008950F931F93C6
:100FD000CF93DF93EC0188819981009759F02A81A2
:100FE0003B812617370730F081E0DF91CF911F91C9
:100FF0000F9108958B016F5F7F4F0E941A11009728
:1010000059F0998388831B830A832C813D81232B8C
:1010100059F7FC011082E8CF80E0E7CFCF93DF9350
:10102000EC0188819981009711F00E94911019823A
:1010300018821D821C821B821A82DF91CF91089533
:10104000EF92FF920F931F93CF93DF93EC018617DC
:10105000970781F0FB01008111810115110539F01D
:10106000E480F580B7010E94E60781110BC0CE0134
:101070000E940E08CE01DF91CF911F910F91FF903A
:10108000EF900895FD82EC82B801888199810E94D9
:10109000F411F0CFEF92FF920F931F93CF93DF9352
:1010A000EC017B01198218821B821A821D821C822C
:1010B000FB0101900020E9F731978F01061B170B08
:1010C000B8010E94E607811109C0CE01DF91CF91DE
:1010D0001F910F91FF90EF900C940E081D830C83CD
:1010E000B70188819981DF91CF911F910F91FF9076
:1010F000EF900C94F411FC0180819181009711F024
:101100000C94911008951F920F920FB60F92112414
:101110002F933F934F935F936F937F938F939F93FF
:10112000AF93BF93EF93FF938091F8029091F902F0
:10113000A091FA02B091FB02892B8A2B8B2BD1F163
:101140009091F702E091F502F091F60280818927F3
:1011500080838091F8029091F902A091FA02B091F7
:10116000FB02181619061A061B069CF48091F80259
:101170009091F902A091FA02B091FB020197A109A6
:10118000B1098093F8029093F902A093FA02B09308
:10119000FB02FF91EF91BF91AF919F918F917F9152
:1011A0006F915F914F913F912F910F900FBE0F90D4
:1011B0001F901895809118010E94DE01EACF1F92BE
:1011C0000F920FB60F9211242F933F938F939F93FB
:1011D000AF93BF9380912B0390912C03A0912D038B
:1011E000B0912E033091E60223E0230F2D3758F5FE
:1011F0000196A11DB11D2093E60280932B039093CD
:101200002C03A0932D03B0932E038091E7029091BD
:10121000E802A091E902B091EA020196A11DB11D78
:101220008093E7029093E802A093E902B093EA0268
:10123000BF91AF919F918F913F912F910F900FBED2
:101240000F901F90189526E8230F0296A11DB11D3F
:10125000D2CFCF93DF93CDB7DEB7C457D1090FB646
:10126000F894DEBF0FBECDBF789484B5826084BD94
:1012700084B5816084BD85B5826085BD85B581609A
:1012800085BD80916E00816080936E001092810018
:1012900080918100826080938100809181008160D3
:1012A0008093810080918000816080938000809194
:1012B000B10084608093B1008091B0008160809320
:1012C000B00080917A00846080937A0080917A00E7
:1012D000826080937A0080917A00816080937A00A6
:1012E00080917A00806880937A001092C10061E05A
:1012F0008DE00E940A0282E00E9431078BED91E0AE
:101300000E94630660E273E080E090E00E942C0699
:101310000E94D20787EE91E00E94630666E373E0C5
:1013200080E090E00E942C060E94290786EF91E061
:101330000E94630664EC79E080E090E00E942C0655
:101340000E94D20784E092E00E94630664EC79E098
:1013500080E090E00E942C060E9429078EE092E037
:101360000E9463066CED75E080E090E00E942C0620
:101370000E94D2078FE192E00E9463066CED75E057
:1013800080E090E00E942C060E9429078FE292E004
:101390000E94630664EC79E080E090E00E942C06F5
:1013A0000E9429078FE392E00E9463066CED75E0CE
:1013B00080E090E00E942C060E9429078BE492E0D6
:1013C0000E9463066CED75E080E090E00E942C06C0
:1013D0000E94290787E592E00E9463066CED75E0A4
:1013E00080E090E00E942C060E94290785E692E0AA
:1013F0000E9463066CED75E080E090E00E942C0690
:101400000E94290701E06E0125E7C20ED11C69E3A5
:10141000E62E68E0F62E70E0A72E70E0B72E0E9450
:101420004A02882361F1823309F460C0833309F4EE
:1014300078C0813321F563E173E085E293E00E9497
:10144000200861E073E08EE993E00E94200883E7C2
:1014500092E00E94630664EC79E080E090E00E94F4
:101460002C060E94D20783E193E00E944E0168EBB4
:101470007BE080E090E00E942C06009300038091C6
:101480000003882309F43CC20E944A02182F8823D3
:1014900059F0893609F486C10CF068C0813609F428
:1014A000B2C0853609F41FC12091290330912A0367
:1014B0008091A2039091A3032817390709F082C2F3
:1014C000809125039091260360919E0370919F0364
:1014D000009709F41CC26115710509F0D9C1232BCD
:1014E00009F423C2FC01808190E01CC269E173E031
:1014F00085E293E00E94200867E073E08EE993E0C4
:101500000E94200883E792E00E94630664EC79E081
:1015100080E090E00E942C060E94D20789E193E0CF
:10152000A4CF6FE173E085E293E00E9420086DE0B4
:1015300073E08EE993E00E94200883E792E00E9426
:10154000630664EC79E080E090E00E942C060E9443
:10155000D2078FE193E00E944E010093000368EBF5
:101560007BE080E090E00E942C0689CF8F3609F462
:1015700054C1853709F098CF85E70E9470068F3FE8
:10158000980709F046C080E992E00E94630693E064
:10159000892E912C61E08DE00E940A0261E08DE0CD
:1015A0000E94AC0164EF71E080E090E00E942C06A4
:1015B00061E08DE00E940A0260E08DE00E94AC01D3
:1015C0006AEF70E080E090E00E942C060E942907FC
:1015D00085E293E00E944E016CED75E080E090E0C2
:1015E0000E942C060E94290785E293E00E944E018A
:1015F0006CED75E080E090E00E942C06F1E08F1A1F
:10160000910841F660C081E60E9470068F3F9807FE
:1016100039F12091290330912A038217930738F476
:10162000E0912503F0912603E80FF91F10830E9433
:10163000290782E892E00E9463066CED75E080E085
:1016400090E00E942C060E94290785E293E00E9408
:101650004E016CED75E080E090E00E942C0624CFF6
:1016600080E992E00E94630653E0852E912C61E0B0
:101670008DE00E940A0261E08DE00E94AC0164EFFF
:1016800071E080E090E00E942C0661E08DE00E9415
:101690000A0260E08DE00E94AC016AEF70E080E039
:1016A00090E00E942C060E94290785E293E00E94A8
:1016B0004E016CED75E080E090E00E942C06F1E0B8
:1016C0008F1A9108A1F66CED75E080E090E00E9421
:1016D0002C068091190190911A01019790931A019B
:1016E00080931901E1CE85E60E9470068F3F98072E
:1016F00029F12091290330912A038217930738F4A6
:10170000E0912503F0912603E80FF91F10830E9452
:10171000290782E892E00E94630664EF71E080E0AE
:1017200090E00E942C060E94290785E293E00E9427
:101730004E016AEF70E080E090E08FCF80E992E0A8
:101740000E94630643E0842E912C61E08DE00E94AC
:101750000A0261E08DE00E94AC0164EF71E080E07C
:1017600090E00E942C0661E08DE00E940A0260E099
:101770008DE00E94AC016AEF70E080E090E00E9492
:101780002C060E94290785E293E00E944E016CED31
:1017900075E080E090E00E942C0681E0881A9108B4
:1017A000A1F691CF89E60E9470068F3F980709F055
:1017B00030CF80E992E00E94630633E0832E912CC3
:1017C00061E08DE00E940A0261E08DE00E94AC01C0
:1017D00064EF71E080E090E00E942C0661E08DE013
:1017E0000E940A0260E08DE00E94AC016AEF70E0A6
:1017F00080E090E00E942C060E94290785E293E099
:101800000E944E016CED75E080E090E00E942C0695
:10181000F1E08F1A9108A1F656CF8FE60E9470066C
:101820008F3F980709F0F5CE80E992E00E946306A9
:1018300023E0822E912C61E08DE00E940A0261E09B
:101840008DE00E94AC0164EF71E080E090E00E94C6
:101850002C0661E08DE00E940A0260E08DE00E94AB
:10186000AC016AEF70E080E090E00E942C060E94DC
:10187000290785E293E00E944E016CED75E080E05F
:1018800090E00E942C0681E0881A9108A1F61BCFF7
:101890000E94EB1147C06115710509F46DC0719587
:1018A00061957109C7010E94860F072E000C880BF5
:1018B000990B0E94060E20E030E040EC5FE30E94AE
:1018C000410E0E94500F57C06115710509F4A2C066
:1018D0007195619571098091FE029091FF020E94BD
:1018E000860F072E000C880B990B0E94060E20E035
:1018F00030E040EC5FE30E94410E0E94500F86C032
:10190000A114B10409F48BCD0E94000088CD6115AB
:10191000710559F0232B49F0FB01808190E09195EE
:1019200081959109892B09F04DC00E9429078AE908
:1019300092E00E946306109200036CED75E080E077
:1019400090E00E942C0684E7E1E2F1E0DE011196CE
:1019500001900D928A95E1F7CE0101964C01712C10
:10196000612CF40162817381161617060CF093CF77
:10197000C7010E94860F3B011301072C000C44088D
:101980005508C201B1010E94060E26E636E646E67B
:101990005FE30E94410E0E94570F9B01AC01F401CE
:1019A0006081718183E00E94A103C201B1010E94A4
:1019B0002C0683E00E94DE01F4E08F0E911C8C1453
:1019C0009D0479F68091190190911A01892B09F0F3
:1019D00056CD0E94290786EA92E00E94630668EECF
:1019E00073E080E090E00E942C068BEA882E81E074
:1019F000982EF40162817381161617060CF064CFDD
:101A00008091FE029091FF020E94860F7093FD026A
:101A10006093FC024090FC025090FD02052C000CEB
:101A200066087708C301B2010E94060E26E636E674
:101A300046E65FE30E94410E0E94570F9B01AC01F6
:101A4000F4016081718183E00E94A103C301B201AE
:101A50000E942C0683E00E94DE01F4E08F0E911CB0
:101A60002BED821621E0920621F61092000307CD9D
:101A70001092310310923503109234031092360302
:101A800085EA91E09093300380932F03EBE4F3E039
:101A900087E893E0108214821382158236968E179F
:101AA0009F07C1F784E091E09093920380939103A4
:101AB00080E091E0909394038093930384E080937B
:101AC00095038093960388E091E090939003809330
:101AD0008F038AE090E0909398038093970384EFBC
:101AE00091E090939A038093990310929D03109232
:101AF0009C0310928B0310928C0310928D03109212
:101B00008E0310929B031092A7031092A60389E9FB
:101B100091E09093A5038093A40381E08093A803B0
:101B20008FEF8093A9031092AA038FE08093AB03F9
:101B300080E18093AC038AE08093AD0389E08093D9
:101B4000AE031092AF031092B0031092B103109243
:101B5000B2031092B30381E00E94310780EB94E05E
:101B60009093FF028093FE0264EB72E083E193E0C6
:101B70000E944A0869EB72E089E193E00E944A08FA
:101B800060EC72E08FE193E00E944A086DEC72E035
:101B900081E093E00E944A0862ED72E087E093E002
:101BA0000E944A0869ED72E08DE093E00E944A08C5
:101BB0006EE372E085E293E00E944A086EE372E011
:101BC0008EE993E00C944A088EE993E00E947B082A
:101BD00085E293E00E947B088DE093E00E947B0801
:101BE00087E093E00E947B0881E093E00E947B08FD
:101BF0008FE193E00E947B0889E193E00E947B08DB
:101C000083E193E00C947B08E89409C097FB3EF4D1
:101C100090958095709561957F4F8F4F9F4F992339
:101C2000A9F0F92F96E9BB279395F69587957795B7
:101C30006795B795F111F8CFFAF4BB0F11F460FF77
:101C40001BC06F5F7F4F8F4F9F4F16C0882311F0CF
:101C500096E911C0772321F09EE8872F762F05C0E3
:101C6000662371F096E8862F70E060E02AF09A957E
:101C7000660F771F881FDAF7880F9695879597F973
:101C800008950E94540E0C94C50E0E94B70E38F0B1
:101C90000E94BE0E20F0952311F00C94AE0E0C9411
:101CA000B40E11240C94F90E0E94D60E70F3959F79
:101CB000C1F3950F50E0551F629FF001729FBB2743
:101CC000F00DB11D639FAA27F00DB11DAA1F649FDF
:101CD0006627B00DA11D661F829F2227B00DA11D92
:101CE000621F739FB00DA11D621F839FA00D611D18
:101CF000221F749F3327A00D611D231F849F600D39
:101D0000211D822F762F6A2F11249F5750409AF061
:101D1000F1F088234AF0EE0FFF1FBB1F661F771FED
:101D2000881F91505040A9F79E3F510580F00C94B8
:101D3000AE0E0C94F90E5F3FE4F3983ED4F3869513
:101D400077956795B795F795E7959F5FC1F7FE2B58
:101D5000880F911D9695879597F9089597F99F6734
:101D600080E870E060E008959FEF80EC0895002423
:101D70000A941616170618060906089500240A94F0
:101D800012161306140605060895092E0394000C76
:101D900011F4882352F0BB0F40F4BF2B11F460FF05
:101DA00004C06F5F7F4F8F4F9F4F089557FD90582E
:101DB000440F551F59F05F3F71F04795880F97FB0F
:101DC000991F61F09F3F79F08795089512161306C9
:101DD0001406551FF2CF4695F1DF08C016161706F8
:101DE0001806991FF1CF869571056105089408952D
:101DF000E894BB2766277727CB0197F908950E94BF
:101E0000410FA59F900DB49F900DA49F800D911D33
:101E1000112408952F923F924F925F926F927F927A
:101E20008F929F92AF92BF92CF92DF92EF92FF92EA
:101E30000F931F93CF93DF93CDB7DEB7CA1BDB0B96
:101E40000FB6F894DEBF0FBECDBF09942A8839883B
:101E500048885F846E847D848C849B84AA84B98442
:101E6000C884DF80EE80FD800C811B81AA81B9814E
:101E7000CE0FD11D0FB6F894DEBF0FBECDBFED0162
:101E80000895A29FB001B39FC001A39F700D811D53
:101E90001124911DB29F700D811D1124911D089573
:101EA0000E94570F6894B1110C94F90E08950E9486
:101EB000DE0E88F09F5798F0B92F9927B751B0F0F0
:101EC000E1F0660F771F881F991F1AF0BA95C9F7BE
:101ED00014C0B13091F00E94F80EB1E008950C9456
:101EE000F80E672F782F8827B85F39F0B93FCCF309
:101EF000869577956795B395D9F73EF4909580953B
:101F0000709561957F4F8F4F9F4F089597FB072ED8
:101F100016F4009407D077FD09D00E94DB0F07FC70
:101F200005D03EF4909581959F4F089570956195E9
:101F30007F4F0895A1E21A2EAA1BBB1BFD010DC005
:101F4000AA1FBB1FEE1FFF1FA217B307E407F50769
:101F500020F0A21BB30BE40BF50B661F771F881F45
:101F6000991F1A9469F760957095809590959B01DB
:101F7000AC01BD01CF010895052E97FB1EF400941E
:101F80000E94D30F57FD07D00E949A0F07FC03D081
:101F90004EF40C94D30F50954095309521953F4FBA
:101FA0004F4F5F4F089590958095709561957F4F45
:101FB0008F4F9F4F0895AA1BBB1B51E107C0AA1F5B
:101FC000BB1FA617B70710F0A61BB70B881F991FDA
:101FD0005A95A9F780959095BC01CD010895EE0F13
:101FE000FF1F0590F491E02D09940F931F93CF9359
:101FF000DF938230910510F482E090E0E091BE031F
:10200000F091BF0330E020E0B0E0A0E0309799F419
:102010002115310509F44AC0281B390B243031053C
:10202000D8F58A819B816115710589F1FB01938344
:102030008283FE0111C040815181028113814817C2
:102040005907E0F04817590799F4109761F0129674
:102050000C93129713961C933296CF01DF91CF9178
:102060001F910F9108950093BE031093BF03F4CF07
:102070002115310551F04217530738F0A901DB0152
:102080009A01BD01DF01F801C1CFEF01F9CF9093B3
:10209000BF038093BE03CDCFFE01E20FF31F8193F8
:1020A00091932250310939832883D7CF2091BC03E3
:1020B0003091BD03232B41F420911D0130911E016D
:1020C0003093BD032093BC0320911B0130911C0170
:1020D0002115310541F42DB73EB740911F015091B4
:1020E0002001241B350BE091BC03F091BD03E217E6
:1020F000F307A0F42E1B3F0B2817390778F0AC012B
:102100004E5F5F4F2417350748F04E0F5F1F509307
:10211000BD034093BC03819391939FCFF0E0E0E037
:102120009CCFCF93DF930097E9F0FC0132971382A5
:102130001282A091BE03B091BF03ED0130E020E018
:102140001097A1F420813181820F931F2091BC034D
:102150003091BD032817390709F061C0F093BD0322
:10216000E093BC03DF91CF910895EA01CE17DF071A
:10217000E8F54A815B819E0141155105B1F7E901FE
:10218000FB83EA8349915991C40FD51FEC17FD07D2
:1021900061F4808191810296840F951FE9019983F2
:1021A0008883828193819B838A83F0E0E0E01296AA
:1021B0008D919C9113970097B9F52D913C911197B2
:1021C000CD010296820F931F2091BC033091BD0375
:1021D0002817390739F6309751F51092BF0310923E
:1021E000BE03B093BD03A093BC03BCCFD383C28313
:1021F00040815181840F951FC817D90761F44E5F44
:102200005F4F88819981480F591F518340838A818C
:102210009B81938382832115310509F0B0CFF09320
:10222000BF03E093BE039ECFFD01DC01C0CF13824C
:102230001282D7CFB0E0A0E0E0E2F1E10C940C0F05
:102240008C01009751F4CB010E94F50F8C01C8015D
:10225000CDB7DEB7E0E10C94280FFC01E60FF71FC5
:102260009C0122503109E217F30708F49DC0D901FF
:10227000CD91DC911197C617D70798F0C530D105DD
:1022800030F3CE0104978617970708F3C61BD70BC8
:102290002297C193D1936D937C93CF010E949110AB
:1022A000D6CF5B01AC1ABD0A4C018C0E9D1EA091CD
:1022B000BE03B091BF03512C412CF12CE12C10979F
:1022C00031F58091BC039091BD038815990509F003
:1022D0005CC04616570608F058C080911B019091CB
:1022E0001C01009741F48DB79EB740911F0150919A
:1022F0002001841B950BE817F90708F055C0F093EF
:10230000BD03E093BC03F90171836083A0CF8D917D
:102310009C91119712966C90129713967C9013973C
:10232000A815B90559F56C0142E0C40ED11CCA14B8
:10233000DB0420F1AC014A195B09DA01129615970A
:1023400080F06282738251834083D9016D937C93C4
:10235000E114F10471F0D7011396FC93EE931297F8
:1023600076CF22968C0F9D1FF90191838083F30114
:10237000EFCFF093BF03E093BE0369CF4816590631
:1023800008F42C017D01D3019ACFCB010E94F50FF7
:102390007C01009749F0AE01B8010E94D711C80135
:1023A0000E949110870153CF10E000E050CFFB0155
:1023B000DC0102C001900D9241505040D8F70895C1
:1023C000FC018191861721F08823D9F79927089578
:1023D0003197CF010895FB01DC018D9101908019A7
:1023E0000110D9F3990B0895FB01DC0101900D92C6
:1023F0000020E1F7089510E0C3E6D0E004C0FE013C
:102400000E94EF0F2196C436D107C9F7F894FFCF89
:10241000060504020C0B08076F7520206165692012
:102420003132332020202020FF03000000C0038031
:1024300000B8011000EE0110004B021000EE011078
:1024400000E402F8FFE402F8FF9302FCFFB8011079
:1024500000EE0110004B021000EE0110009302F894
:10246000FF9302F8FF4B02F8FF2A021000EE01F87A
:10247000FFB8011000EE0110004B021000EE011039
:10248000004B020400930208002A02F8FFEE01103C
:1024900000B8010800B8010800B801080093020460
:1024A000004B02020000000000E007210160065F0F
:1024B00006000000004602DA01A9010B02FCFF88B9
:1024C00001FCFF4A010400B801F8FFEE01F8FFB873
:1024D00001F8FF9F01F8FFD201F8FF9F01F8FF8884
:1024E000010800260108004A01FEFF4249454E56F8
:1024F000454E49444F2100616C2041484F524341B1
:10250000444F203A2900342C352C362C372C3820D7
:10251000736F6E00612C652C692C6F2C75005465EF
:102520006E6573203320696E74656E746F7300730B
:10253000696E6F2C20706572646573203A280020E4
:1025400020204449464943554C5441442020002012
:102550002020313A466163696C2000202020323A05
:102560004D6564696F2000202020333A4469666914
:1025700063696C2000454C494A412044455341461B
:10258000494F0053752070616C6162726120657300
:102590003A002020202041434552544153544500E5
:1025A000202020204552524F520020202020474119
:1025B0004E41535445002020202047414D45204F97
:1025C00056455200685F6C5F00635F645F635F0045
:1025D000765F736C5F6D62725F6E645F0068696CDA
:1025E0006F0063616475636F007669736C756D620B
:0625F00072616E646F00D1
:107E0000112484B714BE81FFF0D085E080938100F7
:107E100082E08093C00088E18093C10086E0809377
:107E2000C20080E18093C4008EE0C9D0259A86E02C
:107E300020E33CEF91E0309385002093840096BBD3
:107E4000B09BFECF1D9AA8958150A9F7CC24DD24C4
:107E500088248394B5E0AB2EA1E19A2EF3E0BF2EE7
:107E6000A2D0813461F49FD0082FAFD0023811F036
:107E7000013811F484E001C083E08DD089C08234E0
:107E800011F484E103C0853419F485E0A6D080C0E4
:107E9000853579F488D0E82EFF2485D0082F10E0AE
:107EA000102F00270E291F29000F111F8ED06801E7
:107EB0006FC0863521F484E090D080E0DECF843638
:107EC00009F040C070D06FD0082F6DD080E0C81688
:107ED00080E7D80618F4F601B7BEE895C0E0D1E017
:107EE00062D089930C17E1F7F0E0CF16F0E7DF06D8
:107EF00018F0F601B7BEE89568D007B600FCFDCFD4
:107F0000A601A0E0B1E02C9130E011968C91119780
:107F100090E0982F8827822B932B1296FA010C0160
:107F200087BEE89511244E5F5F4FF1E0A038BF0790
:107F300051F7F601A7BEE89507B600FCFDCF97BE46
:107F4000E89526C08437B1F42ED02DD0F82E2BD052
:107F50003CD0F601EF2C8F010F5F1F4F84911BD097
:107F6000EA94F801C1F70894C11CD11CFA94CF0C13
:107F7000D11C0EC0853739F428D08EE10CD085E9AC
:107F80000AD08FE07ACF813511F488E018D01DD067
:107F900080E101D065CF982F8091C00085FFFCCF94
:107FA0009093C60008958091C00087FFFCCF809118
:107FB000C00084FD01C0A8958091C6000895E0E648
:107FC000F0E098E1908380830895EDDF803219F02E
:107FD00088E0F5DFFFCF84E1DECF1F93182FE3DFCA
:107FE0001150E9F7F2DF1F91089580E0E8DFEE27F6
:047FF000FF270994CA
:027FFE00040479
:00000001FF
